:060000000A128A114F2FC5
:100E46003F3406345B344F3466346D347D340734B6
:100E56007F346734FF30F0070318F10AFF30F107DB
:100E6600FF307106031D392FFF307006031D3C2F1E
:100E76003D2F2D2F08007E088A007F0882003E271E
:100E86000A128A118000840A04087D0603190034B8
:100E9600FF0A0319FE0A422FF601F701F801F901CC
:100EA60083133830FD000730FE002330FF002E305C
:100EB60084000A128A1142270A128A1183010A1231
:100EC6008A11652F0F308316031385000310003037
:100ED6000318013086000310003003180130831216
:100EE6000313850003100030031801308600031039
:100EF60000300318013083160317880003100030F2
:100F0600031801308900203084002E30F2000408D6
:100F1600F3000A30F4007208840083130008F50019
:100F2600F20A7308840075088000F30AF40B8E2F0A
:100F3600831203132008870083120313051CA42FB2
:100F4600A52FAF2F0130F6070318F70A0030F70771
:100F56000518AE2FAF2FAB2F851CB22FB32FBD2F89
:100F66000130F8070318F90A0030F9078518BC2F75
:100F7600BD2FB92F051DC02FC12FD82F7808760792
:100F8600AC0079080318790A7707AD002C08203ED3
:100F960084008313000886001030F0002730F1002B
:100FA6000A128A112D270A128A1183120313851D2C
:100FB600DD2FDE2F9F2F7809F2007909F300F20A60
:100FC6000319F30A76087207AA0077080318770A46
:100FD6007307AB002A08203E8400831300088600AE
:100FE6001030F0002730F1000A128A112D270A125C
:0A0FF6008A119F2F0A128A110028A9
:02400E00E42CA0
:00000001FF
