:060000000A128A11702FA4
:100EE000F001F101F201F301F401F501F601F7015E
:100EF000F801F901FA01FB01FC01FD01A001A101CA
:100F000083010A128A11842F031000300318013064
:100F10008316031388000310003003180130831276
:100F200003138800031000300318013083160317E1
:100F300088000310003003180130890003100030CE
:100F400003180130831603138700031000300318C1
:100F500001308312031387000530831603138100C9
:100F600083120B1DB42FB52FBE2F0130FC070318C1
:100F7000FD0A0030FD070B11833081007D087C04E1
:100F8000031DC32FC42FC62F0714081501307D067B
:100F9000031DCC2F77307C06031DCF2FD02FD22FEF
:100FA0008814081101307D06031DD82FF4307C060B
:100FB000031DDB2FDC2FE02F071007150814881006
:100FC00003307D06031DE62F6B307C06031DE92FE1
:100FD000EA2FEC2F0711871403307D06031DF22F33
:100FE000E8307C06031DF52FF62FB02F0810871070
:100FF0000030FC000030FD00B02F0A128A110028DA
:00000001FF
