:060000000A128A113C2FD8
:100E42003F3406345B344F3466346D347D340734BA
:100E52007F3467347E088A007F0882002B270A12BB
:100E62008A118000840A04087D0603190034FF0AEF
:100E72000319FE0A2F2FF401F50183132A30FD0016
:100E82000730FE002130FF00203084000A128A1150
:100E92002F270A128A1183010A128A11502F031076
:100EA20000300318013083160313850007308600D3
:100EB200031000300318013083120313850003105E
:100EC200003003180130860003100030031801308F
:100ED20083160317880003100030031801308900BD
:100EE2002A3084002030F0000408F1000A30F200B9
:100EF2007008840083130008F300F00A710884006C
:100F020073088000F10AF20B792F831203138615FE
:100F1200061286120613061C8F2F902F962F013071
:100F2200F4000030F5002B088500861C992F9A2FBB
:100F3200A02F0230F4000030F5002C088500061DB9
:100F4200A32FA42FAA2F0330F4000030F5002D08A0
:100F520085008611061686120613061CB12FB22FC3
:100F6200B82F0430F4000030F5002E088500861CEE
:100F7200BB2FBC2FC22F0530F4000030F5002F0824
:100F82008500061DC52FC62FCC2F0630F400003079
:100F9200F500300885008611061286160613061C17
:100FA200D32FD42FDA2F0730F4000030F5003108A8
:100FB2008500861CDD2FDE2FE42F0830F400003080
:100FC200F50032088500061DE72FE82FEE2F0930C5
:100FD200F4000030F50033088500861106128612EF
:100FE2000617861CF52FF62F862F0030F4000030EE
:0E0FF200F5002A088500862F0A128A110028B1
:00000001FF
