:060000000A128A11A42F70
:100F480083010A128A11A82F0030F0000030F10046
:100F5800073083160313850003100030031801308F
:100F68008700031000300318013083160317880028
:100F78000310003003180130890000308312031376
:100F880087008500051DC92FCA2FD02F0130F00713
:100F98000318F10A0030F1077018D32FD42FE62F69
:100FA800051CD72FD82FDD2F07140518DC2FDD2FB0
:100FB800D92F851CE02FE12FE62F07108518E52F84
:100FC800E62FE22F701CE92FEA2FC62F051CED2F04
:100FD800EE2FF32F07100518F22FF32FEF2F851C94
:100FE800F62FF72FC62F07148518FB2FFC2FF82F85
:080FF800C62F0A128A1100281D
:00000001FF
