:060000000A128A11F52D21
:100BAC00FF30F0070318F10AFF30F1070800F200DC
:100BBC00831203130910720888000A128A11052681
:100BCC000A128A110800F200831203130914720826
:100BDC0088000A128A1105260A128A110800F801E7
:100BEC00F901A001A101A201A301A401A501A60183
:100BFC00A701A801A90183010A128A11F02E831200
:100C0C0003138914E830F0000330F1000A128A1142
:100C1C00D6250A128A11831203138910E830F000CA
:100C2C000330F1000A128A11D6250A128A11080023
:100C3C000310003003180130F100F41F262E272E6C
:100C4C002F2EF309F409F30A0319F40AF101031422
:100C5C00F10DF61F322E332E382EF509F609F50A52
:100C6C000319F60A7608750403193D2E3E2E6E2ED6
:100C7C00F2010314F20D4D2E01300310F50DF60D9B
:100C8C00FF3E031D432E0130F0007008F207F61FE3
:100C9C00502E512E422E76087402031D572E7508C5
:100CAC007302031C5A2E5B2E612E7508F302760814
:100CBC00031CF403F40201300310F60CF50CFF3E98
:100CCC00031D622E0130F202031D6D2E6E2E512E6D
:100CDC007108031D722E772EF309F409F30A031918
:100CEC00F40A7408F401F4077308F301F30708001D
:100CFC000310003003180130F20083120313AD1FF0
:100D0C00882E892E912EAC09AD09AC0A0319AD0AB7
:100D1C00F2010314F20DAB1F942E952E9E2EAA09F0
:100D2C00AB09AA0A0319AB0A0130F0007008F206ED
:100D3C000030F3000030F4002D082C040319A72E0A
:100D4C00A82EE02EF1010314F10DB72E0130031083
:100D5C00AC0DAD0DFF3E031DAD2E0130F000700843
:100D6C00F107AD1FBA2EBB2EAC2E01300310F30DC4
:100D7C00F40DFF3E031DBC2E2D082B02031DC82EA7
:100D8C002C082A02031CCB2ECC2ED32E2C08AA0204
:100D9C002D08031CAB03AB02731401300310AD0C14
:100DAC00AC0CFF3E031DD42E0130F102031DDF2ECF
:100DBC00E02EBB2E7208031DE42EE92EF309F40974
:100DCC00F30A0319F40A7408AB01AB077308AA0100
:100DDC00AA07080003100030031801308316031310
:100DEC0088000310003003180130831203138800AD
:100DFC00031000300318013083160317880003100A
:100E0C0000300318013083160313890003100030DF
:100E1C0003180130831203138900031000300318E8
:100E2C0001308316031789000C300A128A11DD2554
:100E3C000A128A1138300A128A11DD250A128A1117
:100E4C0001300A128A11DD250A128A110030FA00CB
:100E5C000030FB007B0883120313AB01AB077A084D
:100E6C00AA01AA07E830AC000330AD000A128A11BF
:100E7C007E260A128A118313831203132B08A101F5
:100E8C00A1072A08A001A0077B08F401F4077A083F
:100E9C00F301F307E830F5000330F6000A128A116B
:100EAC001E260A128A117408F901F9077308F80151
:100EBC00F807790883120313AB01AB077808AA0172
:100ECC00AA076430AC000030AD000A128A117E26ED
:100EDC000A128A118313831203132B08A301A3078D
:100EEC002A08A201A2077908F401F4077808F30193
:100EFC00F3076430F5000030F6000A128A111E2642
:100F0C000A128A11740883120313A501A50773082A
:100F1C00A401A4072508AB01AB072408AA01AA0762
:100F2C000A30AC000030AD000A128A117E260A127B
:100F3C008A118313831203132B08A701A7072A080E
:100F4C00A601A6072508F401F4072408F301F3070A
:100F5C000A30F5000030F6000A128A111E260A1219
:100F6C008A11740883120313A901A9077308A80135
:100F7C00A80780300A128A11DD250A128A11831201
:100F8C0003132008303E0A128A11E9250A128A112D
:100F9C00831203132208303E0A128A11E9250A1221
:100FAC008A11831203132608303E0A128A11E9258E
:100FBC000A128A11831203132808303E0A128A116E
:100FCC00E9250A128A110130FA070318FB0A0030CE
:100FDC00FB077B08803AF70083307702031DF82F5C
:100FEC00E8307A02031CFB2FFC2F302F2C2F0A1217
:040FFC008A1100282E
:04400E00E42CE42C8E
:00000001FF
