:060000000A128A11282DEE
:100A0000FE00FE1F082D83137E18831700080800C0
:100A10000408FE0005308A007E0882070034533443
:100A2000653463346F346E34643473340034FF30AF
:100A3000F0070318F10AFF30F107FF307106031DBC
:100A4000232DFF307006031D262D272D172D08009E
:100A5000F801F901FA01FB01A001A101A201A30122
:100A6000A401A501A601A70183010A128A119B2EE8
:100A7000F200831203130914720888000A128A1103
:100A800093250A128A110800F20083120313091039
:100A9000720888000A128A1193250A128A11080026
:100B2600831203138914E830F0000330F1000A122F
:100B36008A1117250A128A11831203138910E830C5
:100B4600F0000330F1000A128A1117250A128A11E1
:100B56000800F400BD2D74080A128A1109250A122C
:100B66008A110A128A1138250A128A110130F300F5
:100B76007308F40774080A128A1109250A128A11E1
:100B86000038031DC72DC82DAE2D080003100030F8
:100B960003180130F100F41FD12DD22DDA2DF309FF
:100BA600F409F30A0319F40AF1010314F10DF61F0F
:100BB600DD2DDE2DE32DF509F609F50A0319F60AF2
:100BC600760875040319E82DE92D192EF201031490
:100BD600F20DF82D01300310F50DF60DFF3E031D45
:100BE600EE2D0130F0007008F207F61FFB2DFC2DEC
:100BF600ED2D76087402031D022E75087302031C80
:100C0600052E062E0C2E7508F3027608031CF40337
:100C1600F40201300310F60CF50CFF3E031D0D2EF9
:100C26000130F202031D182E192EFC2D7108031D2A
:100C36001D2E222EF309F409F30A0319F40A740887
:100C4600F401F4077308F301F307080003100030FA
:100C560003180130F20083120313AB1F332E342E18
:100C66003C2EAA09AB09AA0A0319AB0AF20103141E
:100C7600F20DA91F3F2E402E492EA809A909A80A40
:100C86000319A90A0130F0007008F2060030F300DB
:100C96000030F4002B082A040319522E532E8B2EF3
:100CA600F1010314F10D622E01300310AA0DAB0DF4
:100CB600FF3E031D582E0130F0007008F107AB1FF0
:100CC600652E662E572E01300310F30DF40DFF3EF0
:100CD600031D672E2B082902031D732E2A082802DE
:100CE600031C762E772E7E2E2A08A8022B08031CBC
:100CF600A903A902731401300310AB0CAA0CFF3E22
:100D0600031D7F2E0130F102031D8A2E8B2E662EC7
:100D16007208031D8F2E942EF309F409F30A0319A2
:100D2600F40A7408A901A9077308A801A80708000E
:100D360003100030031801308316031388000310D4
:100D460000300318013083120313880003100030AB
:100D560003180130831603178800031000300318A8
:100D66000130890003100030031801308316031385
:100D76008700031000300318013083120313870025
:100D86000310003003180130831603138600031086
:100D960000300318013083120313860001308316D6
:100DA6000313850003100030031801308312031368
:100DB60085000310003003180130831603138900E1
:100DC60003100030031801308312031389000C301E
:100DD6000A128A1144250A128A1138300A128A1117
:100DE60044250A128A1180300A128A1144250A12F1
:100DF6008A1130300A128A1138250A128A11813076
:100E06000A128A1144250A128A1130300A128A11EE
:100E160038250A128A1183300A128A1144250A12C9
:100E26008A1101300A128A11AC250A128A1105307C
:100E360083160313810083308312031381000A1281
:100E46008A112B270A128A11222F0A128A110028C8
:100E560083120313051C302F312F552F0130F8074D
:100E66000318F90A0030F90780300A128A1144255E
:100E76000A128A1130300A128A1138250A128A118A
:100E860081300A128A1144250A128A1130300A1258
:100E96008A1138250A128A11831203130518542F52
:100EA600552F4F2F013078067904031D5B2F5C2FD9
:100EB600892F0B1D5F2F602F692F0130FA0703184A
:100EC600FB0A0030FB070B11833081007B08803A58
:100ED600F70080307702031D722F01307A02031C5F
:100EE600752F762F792F8312031306157B08803A08
:100EF600F70081307702031D822F78307A02031CB7
:100F0600852F862F892F8312031306110230780648
:100F16007904031D8F2F902FFF2F7B088312031355
:100F2600A901A9077A08A801A8077D30AA00003000
:100F3600AB000A128A1129260A128A118313831218
:100F460003132908A501A5072808A401A407250855
:100F5600A901A9072408A801A8070A30AA00003099
:100F6600AB000A128A1129260A128A1183138312E8
:100F760003132908A101A1072808A001A007250835
:100F8600F401F4072408F301F3070A30F5000030F2
:100F9600F6000A128A11C9250A128A1174088312E8
:100FA6000313A301A3077308A201A20780300A1244
:100FB6008A1144250A128A11831203132008303E2F
:100FC6000A128A1138250A128A1181300A128A11E8
:100FD60044250A128A11831203132208303E0A128C
:100FE6008A1138250A128A110030F8000030F900FB
:0A0FF6000030FA000030FB00080094
:02400E00E42CA0
:00000001FF
