:060000000A128A119E2D78
:100B3C0083010A128A11B42EF200831203130910D6
:100B4C00720888000A128A11CB250A128A11080031
:100B5C00F200831203130914720888000A128A1116
:100B6C00CB250A128A110800FF30F0070318F10A8E
:100B7C00FF30F107FF307106031DC62DFF307006E4
:100B8C00031DC92DCA2DBA2D080083120313891415
:100B9C00E830F0000330F1000A128A11BA250A126B
:100BAC008A11831203138910E830F0000330F1002E
:100BBC000A128A11BA250A128A1108000310003091
:100BCC0003180130F100F41FEC2DED2DF52DF30978
:100BDC00F409F30A0319F40AF1010314F10DF61FD9
:100BEC00F82DF92DFE2DF509F609F50A0319F60A6B
:100BFC00760875040319032E042E342EF201031407
:100C0C00F20D132E01300310F50DF60DFF3E031DF2
:100C1C00092E0130F0007008F207F61F162E172E61
:100C2C00082E76087402031D1D2E75087302031C12
:100C3C00202E212E272E7508F3027608031CF403B0
:100C4C00F40201300310F60CF50CFF3E031D282EA8
:100C5C000130F202031D332E342E172E7108031DA2
:100C6C00382E3D2EF309F409F30A0319F40A74081B
:100C7C00F401F4077308F301F307080003100030C4
:100C8C0003180130F200F81F4C2E4D2E552EF7098B
:100C9C00F809F70A0319F80AF2010314F20DF61F0A
:100CAC00582E592E622EF509F609F50A0319F60A83
:100CBC000130F0007008F2060030F3000030F40050
:100CCC007808770403196B2E6C2EA42EF1010314F3
:100CDC00F10D7B2E01300310F70DF80DFF3E031DB7
:100CEC00712E0130F0007008F107F81F7E2E7F2E58
:100CFC00702E01300310F30DF40DFF3E031D802EFA
:100D0C0078087602031D8C2E77087502031C8F2E33
:100D1C00902E972E7708F5027808031CF603F6023E
:100D2C00731401300310F80CF70CFF3E031D982EC2
:100D3C000130F102031DA32EA42E7F2E7208031D79
:100D4C00A82EAD2EF309F409F30A0319F40A74085A
:100D5C00F601F6077308F501F507080003100030DB
:100D6C000318013083160313880003100030031896
:100D7C000130831203138800031000300318013074
:100D8C008316031788000310003003180130890004
:100D9C00031000300318013083160313870003106F
:100DAC000030031801308312031387000310003046
:100DBC000318013083160313860003100030031848
:100DCC000130831203138600103083160313850041
:100DDC000310003003180130831203138500031035
:100DEC000030031801308316031389000310003000
:100DFC00031801308312031389000C300A128A1174
:100E0C00A2250A128A1138300A128A11A2250A1256
:100E1C008A1180300A128A11A2250A128A113030E6
:100E2C000A128A11AE250A128A1181300A128A110D
:100E3C00A2250A128A1130300A128A11AE250A1222
:100E4C008A1120308316031381000310003003181D
:100E5C0001308312031381000030A0000030A10088
:100E6C00051E392F3A2F362F0130A0070318A10A7F
:100E7C000030A1070108F900FA017908F5007A0899
:100E8C00F600E830F7000330F8000A128A11442605
:100E9C000A128A11760883120313A901A90775088F
:100EAC00A801A8070108F900FA017908F3007A08EB
:100EBC00F400E830F5000330F6000A128A11E4253C
:100ECC000A128A11740883120313AB01AB0773085F
:100EDC00AA01AA072B08F601F6072A08F501F5075F
:100EEC006430F7000030F8000A128A1144260A1206
:100EFC008A11760883120313A701A7077508A601A8
:100F0C00A6072B08F401F4072A08F301F307643051
:100F1C00F5000030F6000A128A11E4250A128A1133
:100F2C00740883120313AD01AD077308AC01AC0751
:100F3C002D08F601F6072C08F501F5070A30F70025
:100F4C000030F8000A128A1144260A128A11760817
:100F5C0083120313A301A3077508A201A2072D088E
:100F6C00F401F4072C08F301F3070A30F500003004
:100F7C00F6000A128A11E4250A128A1174088312E7
:100F8C000313A501A5077308A401A40780300A1256
:100F9C008A11A2250A128A11831203132808303EE3
:100FAC000A128A11AE250A128A118312031326081B
:100FBC00303E0A128A11AE250A128A1183120313CB
:100FCC002208303E0A128A11AE250A128A118312A7
:100FDC0003132408303E0A128A11AE250A128A1114
:100FEC0083120313051AFB2FFC2FF62F362F0A1230
:040FFC008A1100282E
:00000001FF
