:060000000A128A119D2D79
:100B2A0064008001840A0406031900340406962D21
:100B3A00FA01FB0183132030840034300A128A112F
:100B4A0095250A128A1183010A128A11E62EFF30AC
:100B5A00F0070318F10AFF30F107FF307106031D91
:100B6A00B82DFF307006031DBB2DBC2DAC2D08001F
:100B7A00831203138914E830F0000330F1000A12DB
:100B8A008A11AC250A128A11831203138910E830DC
:100B9A00F0000330F1000A128A11AC250A128A11F8
:100BAA000800F3008312031309107308F039880050
:100BBA000A128A11BD250A128A1173080F39F20026
:100BCA0003300310F20DFF3E031DE62D0310720DD4
:100BDA008312031388000A128A11BD250A128A1188
:100BEA000800F3008312031309147308F03988000C
:100BFA000A128A11BD250A128A1173080F39F200E6
:100C0A0003300310F20DFF3E031D062E0310720D72
:100C1A008312031388000A128A11BD250A128A1147
:100C2A0008000310003003180130F100F41F1E2ED3
:100C3A001F2E272EF309F409F30A0319F40AF10106
:100C4A000314F10DF61F2A2E2B2E302EF509F60964
:100C5A00F50A0319F60A760875040319352E362E95
:100C6A00662EF2010314F20D452E01300310F50D24
:100C7A00F60DFF3E031D3B2E0130F0007008F2070F
:100C8A00F61F482E492E3A2E76087402031D4F2E5F
:100C9A0075087302031C522E532E592E7508F3023F
:100CAA007608031CF403F40201300310F60CF50C69
:100CBA00FF3E031D5A2E0130F202031D652E662ED9
:100CCA00492E7108031D6A2E6F2EF309F409F30ADF
:100CDA000319F40A7408F401F4077308F301F3071B
:100CEA0008000310003003180130F200F81F7E2EAE
:100CFA007F2E872EF709F809F70A0319F80AF20175
:100D0A000314F20DF61F8A2E8B2E942EF509F6097E
:100D1A00F50A0319F60A0130F0007008F2060030ED
:100D2A00F3000030F4007808770403199D2E9E2EF4
:100D3A00D62EF1010314F10DAD2E01300310F70D7B
:100D4A00F80DFF3E031DA32E0130F0007008F107D5
:100D5A00F81FB02EB12EA22E01300310F30DF40DA0
:100D6A00FF3E031DB22E78087602031DBE2E7708B9
:100D7A007502031CC12EC22EC92E7708F502780807
:100D8A00031CF603F602731401300310F80CF70C77
:100D9A00FF3E031DCA2E0130F102031DD52ED62EA9
:100DAA00B12E7208031DDA2EDF2EF309F409F30AB5
:100DBA000319F40A7408F601F6077308F501F50732
:100DCA00080003100030031801308316031388004B
:100DDA000310003003180130831203138800031034
:100DEA0000300318013083160317880003100030FF
:100DFA000318013083160313890003100030031807
:100E0A0001308312031389000310003003180130E4
:100E1A00831603178900073083160313860003100D
:100E2A0000300318013083120313860002300A12BD
:100E3A008A11D6250A128A110C300A128A11D6256D
:100E4A000A128A1128300A128A11D6250A128A1120
:100E5A00003083120313B4000030B5008312031369
:100E6A003508F601F6073408F501F507E830F7000A
:100E7A000330F8000A128A1176260A128A117608B5
:100E8A0083120313A101A1077508A001A007350861
:100E9A00F401F4073408F301F307E830F5000330EE
:100EAA00F6000A128A1116260A128A117408831287
:100EBA000313A301A3077308A201A2072308F601DB
:100ECA00F6072208F501F5076430F7000030F8004C
:100EDA000A128A1176260A128A11760883120313D5
:100EEA00A501A5077508A401A4072308F401F407BE
:100EFA002208F301F3076430F5000030F6000A1205
:100F0A008A1116260A128A117408FB01FB07730854
:100F1A00FA01FA077B08F601F6077A08F501F507E0
:100F2A000A30F7000030F8000A128A1176260A12EF
:100F3A008A11760883120313AD01AD077508AC0157
:100F4A00AC077B08F401F4077A08F301F3070A30C7
:100F5A00F5000030F6000A128A1116260A128A11C2
:100F6A00740883120313AF01AF077308AE01AE070B
:100F7A0080300A128A11D6250A128A1183120313A3
:100F8A002008303E0A128A11F6250A128A118312A3
:100F9A0003132408303E0A128A11F6250A128A110E
:100FAA00831203132C08303E0A128A11F6250A12FC
:100FBA008A11831203132E08303E0A128A11F6256B
:100FCA000A128A11013083120313B4070318B50AEF
:100FDA000030B5073508803AF90083307902031DDD
:100FEA00F82FE8303402031CFB2FFC2F332F2D2F50
:060FFA000A128A11002812
:00000001FF
