:060000000A128A11572EBE
:100C56003F3406345B344F3466346D347D340734A8
:100C66007F346734FF30F0070318F10AFF30F107CD
:100C7600FF307106031D412EFF307006031D442E02
:100C8600452E352E08007E088A007F0882004626FB
:100C96000A128A118000840A04087D0603190034AA
:100CA600FF0A0319FE0A4A2E83134030FD00063060
:100CB600FE002B30FF00363084000A128A114A26C5
:100CC6000A128A1183010A128A11372F0310003083
:100CD60003180130F10083120313A11F732E742E23
:100CE6007C2EA009A109A00A0319A10AF101031487
:100CF600F10DA31F7F2E802E852EA209A309A20A1D
:100D06000319A30A2308220403198A2E8B2EBB2E4D
:100D1600F2010314F20D9A2E01300310A20DA30D59
:100D2600FF3E031D902E0130F0007008F207A31F4E
:100D36009D2E9E2E8F2E23082102031DA42E2208EF
:100D46002002031CA72EA82EAE2E2208A0022308DE
:100D5600031CA103A10201300310A30CA20CFF3E49
:100D6600031DAF2E0130F202031DBA2EBB2E9E2E9E
:100D76007108031DBF2EC42EA009A109A00A0319DC
:100D8600A10A08000310003003180130F200831294
:100D96000313A31FCF2ED02ED82EA209A309A20A71
:100DA6000319A30AF2010314F20DA11FDB2EDC2E98
:100DB600E52EA009A109A00A0319A10A0130F00035
:100DC6007008F2060030F3000030F4002308220415
:100DD6000319EE2EEF2E272FF1010314F10DFE2E2F
:100DE60001300310A20DA30DFF3E031DF42E0130AA
:100DF600F0007008F107A31F012F022FF32E013018
:100E06000310F30DF40DFF3E031D032F23082102EB
:100E1600031D0F2F22082002031C122F132F1A2F37
:100E26002208A0022308031CA103A10273140130A7
:100E36000310A30CA20CFF3E031D1B2F0130F10271
:100E4600031D262F272F022F7208031D2B2F302F4D
:100E5600F309F409F30A0319F40A7408A101A107B6
:100E66007308A001A0070800031000300318013022
:100E76008316031385000310003003180130860023
:100E8600031000300318013083120313850003108A
:100E960000300318013086000310003003180130BB
:100EA60083160317880003100030031801308900E9
:100EB600243084003630F5000408F6000A30F700C6
:100EC6007508840083130008F800F50A7608840084
:100ED60078088000F60AF70B632F0030831203139D
:100EE600B4000030B500831203133508A101A10731
:100EF6003408A001A0070A30A2000030A3000A129D
:100F06008A11C5260A128A11831383120313210834
:100F1600AF01AF072008AE01AE073508A101A10752
:100F26003408A001A0070A30A2000030A3000A126C
:100F36008A1169260A128A11831383120313210860
:100F4600B101B1072008B001B0070030B20000308F
:100F5600B30083120313851005142E08243E840063
:100F6600831300088600E830F0000330F1000A120F
:100F76008A1135260A128A11831203130510851465
:100F86003008243E8400831300088600E830F00011
:100F96000330F1000A128A1135260A128A1101302D
:100FA60083120313B2070318B30A0030B3073308DA
:100FB600803AF50080307502031DE32F14303202AB
:100FC600031CE62FE72FAC2F013083120313B4075F
:100FD6000318B50A0030B5073508803AF5008030A9
:100FE6007502031DF82F64303402031CFB2FFC2FFF
:0A0FF600762F702F0A128A110028CE
:02400E00E42CA0
:00000001FF
