:060000000A128A111C2FF8
:100E3800F001F101F201F301F401F501F601F70106
:100E4800F801F901FA01FB01FC01FD01A001A10172
:100E580083010A128A11302F031000300318013061
:100E6800831603138800031000300318013083121F
:100E7800031388000310003003180130831603178A
:100E88008800031000300318013089000310003077
:100E9800031801308316031387000310003003186A
:100EA8000130831203138700031000300318013048
:100EB80083160313860003100030031801308312D1
:100EC8000313860003100030031801308316031340
:100ED80085000310003003180130831203138500C6
:100EE800053083160313810083120B1D7C2F7D2F81
:100EF800862F0130FC070318FD0A0030FD070B118F
:100F0800833081007D087C04031D8B2F8C2F902F4C
:100F1800051506140714081401307D06031D962FC5
:100F280077307C06031D992F9A2F9C2F0511851465
:100F380001307D06031DA22FF4307C06031DA52F6A
:100F4800A62FAA2F851005140715071003307D0654
:100F5800031DB02F6B307C06031DB32FB42FB62FA3
:100F68000711871403307D06031DBC2FE8307C066B
:100F7800031DBF2FC02FC42F071487100815081092
:100F880005307D06031DCA2F5F307C06031DCD2F5B
:100F9800CE2FD02F0811881405307D06031DD62FBB
:100FA800DC307C06031DD92FDA2FDE2F88100814B9
:100FB8000610061507307D06031DE42F53307C0606
:100FC800031DE72FE82FEA2F0611861407307D0648
:100FD800031DF02FD0307C06031DF32FF42F782F3C
:100FE80086100614051005150030FC000030FD00C1
:080FF800782F0A128A1100286B
:00000001FF
