:060000000A128A11882E8D
:100C32001F34113401341F34113411341F34F900BC
:100C4200831203130910790888000A128A116F2689
:100C52000A128A110800F900831203130914790891
:100C620088000A128A116F260A128A1108007E0869
:100C72008A007F08820038260A128A118000840ABC
:100C820004087D0603190034FF0A0319FE0A3C2EEC
:100C9200FF30F7070318F80AFF30F807FF3078062D
:100CA200031D552EFF307706031D582E592E492E4F
:100CB20008000A3404340A3411340A340434003487
:100CC2001734153415341534153415341F341F34C4
:100CD20014341434143414341434143483120313B7
:100CE2008914E830F7000330F8000A128A11492605
:100CF2000A128A11831203138910E830F7000330B5
:100D0200F8000A128A1149260A128A11080077305D
:100D1200FD000630FE001930FF00703084000A1218
:100D22008A113C260A128A1183133530FD000630DF
:100D3200FE005A30FF00203084000A128A113C263D
:100D42000A128A1183010A128A11A72E0310003097
:100D520003180130831603138500031000300318B3
:100D62000130831203138500031000300318013091
:100D7200831603178800031000300318013083160E
:100D8200031386000310003003180130831203138B
:100D92008600031000300318013083160317890000
:100DA2000310003003180130831603138700031069
:100DB2000030031801308312031387000310003040
:100DC2000318013083160313880003100030031840
:100DD200013083120313880003100030031801301E
:100DE20083160313890003100030031801308312A5
:100DF200031389000C300A128A1120260A128A1162
:100E020038300A128A1120260A128A1180300A12F8
:100E12008A1120260A128A1140300A128A112026CB
:100E22000A128A110030FB000030FC007B08203ED1
:100E32008400831300080A128A112C260A128A11CE
:100E42000130FB070318FC0A0030FC077C08803ADB
:100E5200FA0080307A02031D302F07307B02031C18
:100E6200332F342F172F48300A128A1120260A12E4
:100E72008A110030FB000030FC007B08703E8400C9
:100E820000080A128A112C260A128A110130FB0765
:100E92000318FC0A0030FC077C08803AFA00803014
:100EA2007A02031D562F07307B02031C592F5A2F3B
:100EB2003E2F50300A128A1120260A128A1100305F
:100EC200FB000030FC007B08273E840083130008EF
:100ED2000A128A112C260A128A110130FB07031802
:100EE200FC0A0030FC077C08803AFA0080307A0263
:100EF200031D7D2F07307B02031C802F812F642F5F
:100F020058300A128A1120260A128A110030FB0078
:100F12000030FC007B082E3E8400831300080A1276
:100F22008A112C260A128A110130FB070318FC0AC7
:100F32000030FC077C08803AFA0080307A02031DF8
:100F4200A42F07307B02031CA72FA82F8B2F8130E1
:100F52000A128A1120260A128A1101300A128A11F3
:100F62002C260A128A11D030F7000730F8000A1234
:100F72008A1149260A128A1182300A128A112026FF
:100F82000A128A1102300A128A112C260A128A11B6
:100F9200D030F7000730F8000A128A1149260A12E7
:100FA2008A1183300A128A1120260A128A1102300B
:100FB2000A128A112C260A128A11D030F700073041
:100FC200F8000A128A1149260A128A1184300A127A
:100FD2008A1120260A128A1103300A128A112C263B
:100FE2000A128A11D030F7000730F8000A128A116B
:0E0FF20049260A128A11A82F0A128A11002815
:00000001FF
