:060000000A128A158A2E87
:10000A00F200831203130914720888000A128A156F
:10001A00B1260A128A1108000310003003180130B1
:10002A0083120313A500A71F1B281C282428A6092E
:10003A00A709A60A0319A70AA5010314A50D2608EC
:10004A00A0002708A100A2018E30F3007308A300C4
:10005A002508F4007408A4000A128A11B2200A12B0
:10006A008A118313831203132008A6002108A7000C
:10007A002208A80008000310003003180130831278
:10008A000313A700AD1F4A284B285328AC09AD0912
:10009A00AC0A0319AD0AA7010314A70DAB1F562812
:1000AA0057286028AA09AB09AA0A0319AB0A013022
:1000BA00F1007108A7060030A8000030A9002D0839
:1000CA002C04031969286A28A228A6010314A60D7C
:1000DA00792801300310AC0DAD0DFF3E031D6F28CA
:1000EA000130F1007108A607AD1F7C287D286E2813
:1000FA0001300310A80DA90DFF3E031D7E282D080F
:10010A002B02031D8A282C082A02031C8D288E28FC
:10011A0095282C08AA022D08031CAB03AB0228144D
:10012A0001300310AD0CAC0CFF3E031D96280130C4
:10013A00A602031DA128A2287D282708031DA62898
:10014A00AB28A809A909A80A0319A90A2908AB0111
:10015A00AB072808AA01AA07080083120313230879
:10016A00031DB828BF28220821042004031DBE2825
:10017A00BF28D2280030A0000030A1000030A20021
:10018A002D290130F0007008A30701300310A20CDA
:10019A00A10CA00CFF3E031DCB28FE302205031D37
:1001AA00D728D828C628F5280130F0007008A307F8
:1001BA000130A007003003110318013E0319E62895
:1001CA00A107003003110318013E0319ED28A20705
:1001DA0001300310A20CA10CA00CFF3E031DEE2857
:1001EA00FF302205031DFA28FB28D92806290130E9
:1001FA00A30201300310A00DA10DA20DFF3E031DA5
:10020A00FF28A11F09290A29FC2823180D290E29CC
:10021A001429FF30A0057F30A105FF30A205031085
:10022A00A30C2308F000F101F20110300310F00DC5
:10023A00F10DF20DFF3E031D1B297008A004710881
:10024A00A1047208A2042408031D2C292D29A2172F
:10025A000800831203134208B9004308BA0044088D
:10026A00BB0003103A0D3B0DC100C108031D3E2916
:10027A003F2948290030C5000030C4000030C300BF
:10028A000030C200B4294208B9004308BA00440841
:10029A00BB0017300310BB0CBA0CB90CFF3E031D90
:1002AA004F293908BC00C317FF30C205FF30C30508
:1002BA000030C4054208BD004308BE004408BF0020
:1002CA00C0018E30C102C11F6B296C2986294108E1
:1002DA00803A8F3E03187229732974293F29013005
:1002EA000310C00CBF0CBE0CBD0CFF3E031D7529CC
:1002FA000130B9003908C107031D842985297429E9
:10030A009D2918304102031C8B298C2998293F29E1
:10031A000130B9000310BD0DBE0DBF0DC00DB90BE4
:10032A008F290130C102C108031D9C299D298D29ED
:10033A003C08031DA129AC29BD09BE09BF09C00992
:10034A00BD0A0319BE0A0319BF0A0319C00A4008E5
:10035A00C5003F08C4003E08C3003D08C2000800AB
:10036A008330831203139F00B030831603139F0058
:10037A0083129F18C129C229BD291E08F300F4015E
:10038A007308F7007408F800831603131E08F300B5
:10039A00F401730883120313DA007408DB00780887
:1003AA007704031DD929DA29EB295B08F601F60738
:1003BA005A08F501F5077608B701B7077508B601B7
:1003CA00B6070A128A1140220A128A1101307706E8
:1003DA007804031DF129F229072A831203135A0804
:1003EA00003EF5005B080318013E013EF600760860
:1003FA00B701B7077508B601B6070A128A11402273
:10040A000A128A11023077067804031D0D2A0E2A71
:10041A00232A831203135A08003EF5005B080318C7
:10042A00013E023EF6007608B701B7077508B60125
:10043A00B6070A128A1140220A128A110330770675
:10044A007804031D292A2A2A3F2A831203135A08E9
:10045A00003EF5005B080318013E033EF6007608ED
:10046A00B701B7077508B601B6070A128A11402202
:10047A000A128A110800831203133708AB01AB076B
:10048A003608AA01AA07E830AC000330AD000A1208
:10049A008A1140200A128A118313831203132B082C
:1004AA00B301B3072A08B201B2073708A301A307A9
:1004BA003608A201A207E830A4000330A5000A12F8
:1004CA008A15CA260A128A11831383120313230870
:1004DA00AB01AB072208AA01AA076430AC000030BE
:1004EA00AD000A128A1140200A128A11831383125C
:1004FA0003132B08B501B5072A08B401B407370856
:10050A00A301A3073608A201A2076430A4000030A1
:10051A00A5000A128A15CA260A128A11831383129F
:10052A0003132308AB01AB072208AA01AA070A3062
:10053A00AC000030AD000A128A1140200A128A115A
:10054A008313831203132B08AF01AF072A08AE01E6
:10055A00AE073708A301A3073608A201A2070A308B
:10056A00A4000030A5000A128A15CA260A128A11A6
:10057A008313831203132308B101B1072208B001C0
:10058A00B00780300A128A1594260A128A11831239
:10059A0003133208303E0A128A1105200A128A1100
:1005AA00831203133408303E0A128A1105200A12F4
:1005BA008A11831203132E08303E0A128A1105206B
:1005CA000A128A11831203133008303E0A128A1162
:1005DA0005200A128A110800831203134308B9007E
:1005EA004408BA004508BB0003103A0D3B0DC10090
:1005FA00C108031D012B022B092B0030C300003058
:10060A00C4000030C500AB2B4608B9004708BA0041
:10061A004808BB0003103A0D3B0DC200C208031D77
:10062A00172B182B1F2B0030C3000030C4000030DA
:10063A00C500AB2B0030BE000030BF000030C00048
:10064A004208893EB9003908C1024308B900440882
:10065A00BA004508BB0010300310BB0CBA0CB90C29
:10066A00FF3E031D312B3908C2004608B90047086E
:10067A00BA004808BB0010300310BB0CBA0CB90C06
:10068A00FF3E031D412B3908BC003C08C2068030DE
:10069A00B9003908C205C417FF30C305FF30C405C5
:1006AA000030C505C717FF30C605FF30C705003043
:1006BA00C8051830BD0001300310BE0DBF0DC00DB6
:1006CA00FF3E031D612B48084502031D722B470894
:1006DA004402031D722B46084302031C752B762B1A
:1006EA00812B4608C3024708031C470FC402480867
:1006FA00031C480AC5023E1401300310C30DC40D81
:10070A00C50DFF3E031D822B0130BD02031D8E2B3A
:10071A008F2B602B3E08A0003F08A1004008A200D2
:10072A004108B9003908A3004208BA003A08A400EF
:10073A000A128A11B2200A128A118313831203132E
:10074A002008C3002108C4002208C500080083123B
:10075A0003133308A9003408AA003508AB000310B4
:10076A002A0D2B0DAD00AD08031DBC2BBD2BC42BD0
:10077A000030B3000030B4000030B500872C3608D2
:10078A00A9003708AA003808AB0003102A0D2B0D60
:10079A00B200B208031DD22BD32BDA2B0030B300E0
:1007AA000030B4000030B500872C32087B3EA90027
:1007BA002908AD073308A9003408AA003508AB0098
:1007CA0010300310AB0CAA0CA90CFF3E031DE62B3C
:1007DA002908B2003608A9003708AA003808AB0071
:1007EA0010300310AB0CAA0CA90CFF3E031DF62B0C
:1007FA002908AC002C08B2068030A9002908B205E5
:10080A00B417B717FF30B605FF30B7050030B80583
:10081A000030AE000030AF000030B0000730B10049
:10082A00331C182C192C292C3608AE07370803114B
:10083A000318370A0319222CAF07380803110318C3
:10084A00380A0319292CB00701300310B50CB40C6F
:10085A00B30CFF3E031D2A2C01300310B60DB70D51
:10086A00B80DFF3E031D322C0130B102031D3E2C90
:10087A003F2C152C0930B100331C442C452C552C27
:10088A003608AE07370803110318370A03194E2C26
:10089A00AF07380803110318380A0319552CB00793
:1008AA0001300310B50CB40CB30CFF3E031D562CDB
:1008BA0001300310B00CAF0CAE0CFF3E031D5E2CD2
:1008CA000130B102031D6A2C6B2C412C2E08A000AA
:1008DA002F08A1003008A2002D08A9002908A300AA
:1008EA003208AA002A08A4000A128A11B2200A129F
:1008FA008A118313831203132008B3002108B4005A
:10090A002208B5000800831203132B08A5002C083F
:10091A00A6002D08A7000310260D270DAA002E08F1
:10092A00A5002F08A6003008A7000310260D270DE2
:10093A00A9002A08031DA22CB22C29082A0203188E
:10094A00A72CA82CB92C2A03FF3A2907A50019308D
:10095A002502031CB12CB22CB92C2E08AB002F088F
:10096A00AC003008AD00D32D2908031DBD2CCD2CB9
:10097A002A0829020318C22CC32CD42C2903FF3AB3
:10098A002A07A50019302502031CCC2CCD2CD42C07
:10099A002B08AB002C08AC002D08AD00D32D063077
:1009AA00A800AD1FD92CDA2CDB2CA817B01FDE2C1F
:1009BA00DF2CE02C2817AC17FF30AB05FF30AC0555
:1009CA000030AD05AF17FF30AE05FF30AF05003080
:1009DA00B00529082A020318F32CF42C202D013023
:1009EA000310AE0DAF0DB00DFF3E031DF52C013007
:1009FA00A90229082A060319032D042D192D0130ED
:100A0A00A80228080739031D0B2D0C2DF42C192DCB
:100A1A0001300310AD0CAC0CAB0CFF3E031D0E2DC8
:100A2A000130A5002508AA072A082906031D1E2D3C
:100A3A001F2D0D2D512D2A0829020318252D262D8B
:100A4A00512D01300310AB0DAC0DAD0DFF3E031D52
:100A5A00272D0130AA0229082A060319352D362D19
:100A6A004B2D0130A80228080739031D3D2D3E2DC4
:100A7A00262D4B2D01300310B00CAF0CAE0CFF3EEF
:100A8A00031D402D0130A5002508A9072A082906BB
:100A9A00031D502D512D3F2DA81F542D552D6B2D63
:100AAA00FF30AB06FF30AC06FF30AD060130AB07B6
:100ABA00003003110318013E0319642DAC070030FE
:100ACA0003110318013E03196B2DAD07281F6E2D64
:100ADA006F2D852DFF30AE06FF30AF06FF30B00612
:100AEA000130AE07003003110318013E03197E2DB1
:100AFA00AF07003003110318013E0319852DB00713
:100B0A000310003003180130A8002B08AE072C0888
:100B1A00031103182C0A0319932DAF072D0803118B
:100B2A0003182D0A03199A2DB007B01F9D2D9E2D6B
:100B3A00B72DFF30AE06FF30AF06FF30B0060130EA
:100B4A00AE07003003110318013E0319AD2DAF079C
:100B5A00003003110318013E0319B42DB007A80190
:100B6A000314A80D2E08A0002F08A1003008A20027
:100B7A002A08A5002508A3002808A6002608A4001C
:100B8A000A128A11B2200A128A11831383120313DA
:100B9A002008AB002108AC002208AD000800C030D4
:100BAA000A128A1594260A128A11760883120313E6
:100BBA00A701A7077508A601A6070A128A1111201C
:100BCA000A128A118313831203132608B300270813
:100BDA00B4002808B5000030B600A030B700403095
:100BEA00B8000A128A11AC230A128A1183138312DB
:100BFA0003133308C3003408C4003508C500C030E5
:100C0A00C6007F30C7004430C8000A128A11F12298
:100C1A000A128A118313831203134308D500440866
:100C2A00D6004508D7005508A6005608A700570859
:100C3A00A8000030A9002030AA004030AB000A12F8
:100C4A008A152C270A128A11031C2C2E2D2E042FEA
:100C5A00831203135508CC005608CD005708CE005E
:100C6A004C08AB004D08AC004E08AD000030AE0099
:100C7A002030AF00C030B0000A128A1188240A124C
:100C8A008A118313831203132B08CC002C08CD007E
:100C9A002D08CE004C08B3004D08B4004E08B5002C
:100CAA000030B600C830B7004230B8000A128A11C4
:100CBA00AC230A128A118313831203133308C20066
:100CCA003408C3003508C4000A128A112E210A12F8
:100CDA008A118313831203134308D901D9074208DF
:100CEA00D801D8075908AB01AB075808AA01AA07C7
:100CFA006430AC000030AD000A128A1140200A129A
:100D0A008A118313831203132B08D201D2072A08EC
:100D1A00D101D1075908A301A3075808A201A207C4
:100D2A006430A4000030A5000A128A15CA260A12E5
:100D3A008A118313831203132308AB01AB0722081A
:100D4A00AA01AA070A30AC000030AD000A128A11C3
:100D5A0040200A128A118313831203132B08D40129
:100D6A00D4072A08D301D3075908A301A3075808AF
:100D7A00A201A2070A30A4000030A5000A128A15AF
:100D8A00CA260A128A118313831203132308D00175
:100D9A00D0072208CF01CF072B300A128A1105206B
:100DAA000A128A11831203135108303E0A128A1159
:100DBA0005200A128A112E300A128A1105200A12F7
:100DCA008A11831203135308303E0A128A1105202E
:100DDA000A128A11831203134F08303E0A128A112B
:100DEA0005200A128A1120300A128A1105200A12D5
:100DFA008A1156300A128A1105200A128A118312A0
:100E0A0003135508A6005608A7005708A800003083
:100E1A00A9002030AA004030AB000A128A152C27FC
:100E2A000A128A1103181A2F1B2FFF2F831203137A
:100E3A005508C9005608CA005708CB004908F000EF
:100E4A004A08F1004B08F2000A128A1580260A1293
:100E5A008A11700883120313AB007108AC00720880
:100E6A00AD000030AE002030AF004030B0000A12B2
:100E7A008A1188240A128A118313831203132B08F6
:100E8A00C9002C08CA002D08CB004908B3004A083B
:100E9A00B4004B08B5000030B600C830B700423085
:100EAA00B8000A128A11AC230A128A118313831218
:100EBA0003133308C2003408C3003508C4000A12F9
:100ECA008A112E210A128A118313831203134308EB
:100EDA00D901D9074208D801D8075908AB01AB078D
:100EEA005808AA01AA076430AC000030AD000A1203
:100EFA008A1140200A128A118313831203132B08C2
:100F0A00D201D2072A08D101D1075908A301A307A0
:100F1A005808A201A2076430A4000030A5000A12F2
:100F2A008A15CA260A128A11831383120313230805
:100F3A00AB01AB072208AA01AA070A30AC000030AD
:100F4A00AD000A128A1140200A128A1183138312F1
:100F5A0003132B08D401D4072A08D301D30759084D
:100F6A00A301A3075808A201A2070A30A40000306F
:100F7A00A5000A128A15CA260A128A118313831235
:100F8A0003132308D001D0072208CF01CF072D3041
:100F9A000A128A1105200A128A11831203135108B0
:100FAA00303E0A128A1105200A128A112E300A12BC
:100FBA008A1105200A128A11831203135308303E3C
:100FCA000A128A1105200A128A11831203134F0882
:100FDA00303E0A128A1105200A128A1120300A129A
:100FEA008A1105200A128A1156300A128A1105201E
:060FFA000A128A11080032
:101D00007208710470040319862E872E892E803084
:101D1000F2060800F501F601F701F801DA01DB012E
:101D200083010A128A15952FF200831203130910FA
:101D3000720888000A128A15B1260A128A1508004C
:101D4000FF30F0070318F10AFF30F107FF3071068A
:101D5000031DAC2EFF307006031DAF2EB02EA02E3B
:101D60000800831203138914E830F0000330F100F7
:101D70000A128A15A0260A128A15831203138910E3
:101D8000E830F0000330F1000A128A15A0260A128A
:101D90008A15080003100030031801308312031362
:101DA000A000A31FD42ED52EDD2EA209A309A20ABE
:101DB0000319A30AA0010314A00DA51FE02EE12E14
:101DC000E62EA409A509A40A0319A50A25082404D6
:101DD0000319EB2EEC2E1C2FA1010314A10DFB2ED9
:101DE00001300310A40DA50DFF3E031DF12E01309F
:101DF000F0007008A107A51FFE2EFF2EF02E25086B
:101E00002302031D052F24082202031C082F092F7B
:101E10000F2F2408A2022508031CA303A3020130EC
:101E20000310A50CA40CFF3E031D102F0130A102CE
:101E3000031D1B2F1C2FFF2E2008031D202F252FD5
:101E4000A209A309A20A0319A30A2308A301A3074D
:101E50002208A201A207080083120313A81F312F32
:101E6000322F572F0030A0000030A1008030A20098
:101E70002609A3002709A4002809A500A30A03191D
:101E8000A40A0319A50A2308A00724080318240F8D
:101E90004A2F4B2FA10725080318250F502F512F2C
:101EA000A2072008A6002108A7002208A800AB1F4F
:101EB0005A2F5B2F802F0030A0000030A10080300F
:101EC000A2002909A3002A09A4002B09A500A30A3E
:101ED0000319A40A0319A50A2308A0072408031854
:101EE000240F732F742FA10725080318250F792FAE
:101EF0007A2FA2072008A9002108AA002208AB0017
:101F00008030A8068030AB062B082802031D8E2FD8
:101F10002A082702031D8E2F290826020318912F55
:101F2000932F0314942F031008000D30831603130E
:101F3000850003100030031801308312031385005D
:101F400003100030031801308316031388000310B8
:101F5000003003180130831203138800031000308F
:101F60000318013083160313870003100030031891
:101F7000013083120313870003100030031801306F
:101F800083160313890003100030031801308312F5
:101F9000031389008316031788010314880D0310A7
:101FA000003003180130890038300A128A1594264F
:101FB0000A128A150C300A128A1594260A128A15FA
:101FC00080300A128A1594260A128A1530300A12B5
:101FD0008A1105200A128A1530300A128A1105204A
:101FE0000A128A150A128A11B5210A128A150A12D2
:101FF0008A11D4250A128A15F22F0A128A11002892
:00000001FF
