:060000000A128A11312EE4
:100C0A003F3406345B344F3466346D347D340734F4
:100C1A007F3467347E088A007F0882000F260A1212
:100C2A008A118000840A04087D0603190034FF0A29
:100C3A000319FE0A132EFF30F0070318F10AFF30DA
:100C4A00F107FF307106031D2C2EFF307006031DBD
:100C5A002F2E302E202E0800F701F801831344307E
:100C6A00FD000630FE000530FF003A3084000A120B
:100C7A008A1113260A128A1183010A128A11132F62
:100C8A000310003003180130F10083120313A11F6F
:100C9A004F2E502E582EA009A109A00A0319A10A05
:100CAA00F1010314F10DA31F5B2E5C2E612EA20924
:100CBA00A309A20A0319A30A230822040319662E08
:100CCA00672E972EF2010314F20D762E01300310CF
:100CDA00A20DA30DFF3E031D6C2E0130F00070081B
:100CEA00F207A31F792E7A2E6B2E23082102031DE9
:100CFA00802E22082002031C832E842E8A2E22088C
:100D0A00A0022308031CA103A10201300310A30CB3
:100D1A00A20CFF3E031D8B2E0130F202031D962EFC
:100D2A00972E7A2E7108031D9B2EA02EA009A109C9
:100D3A00A00A0319A10A08000310003003180130A1
:100D4A0083120313A100A71FAB2EAC2EB42EA60943
:100D5A00A709A60A0319A70AA1010314A10DA51F31
:100D6A00B72EB82EC12EA409A509A40A0319A50AEB
:100D7A000130F0007008A1060030A2000030A30084
:100D8A00270826040319CA2ECB2E032FA001031409
:100D9A00A00DDA2E01300310A60DA70DFF3E031D8C
:100DAA00D02E0130F0007008A007A71FDD2EDE2E1E
:100DBA00CF2E01300310A20DA30DFF3E031DDF2E1F
:100DCA0027082502031DEB2E26082402031CEE2EFB
:100DDA00EF2EF62E2608A4022708031CA503A50257
:100DEA00221401300310A70CA60CFF3E031DF72E98
:100DFA000130A002031D022F032FDE2E2108031D3E
:100E0A00072F0C2FA209A309A20A0319A30A230870
:100E1A00A501A5072208A401A407080003100030B1
:100E2A0003180130831603138500031000300318DA
:100E3A0001308700031000300318013088000310C6
:100E4A0000300318013083120313850003100030A9
:100E5A00031801308700031000300318013088009E
:100E6A00031000300318013083160317880003109B
:100E7A000030031801308900283084003A30F3002A
:100E8A000408F4000A30F50073088400831300088C
:100E9A00F600F30A7408840076088000F40AF50B59
:100EAA00492F2F3083120313A4000030A5000A3003
:100EBA00A6000030A7000A128A11A1260A128A1176
:100ECA008313831203132508B901B9072408B8014B
:100EDA00B8072F30A0000030A1000A30A20000306D
:100EEA00A3000A128A1145260A128A118313831251
:100EFA0003132108B701B7072008B601B607533014
:100F0A00A4000030A5000A30A6000030A7000A128B
:100F1A008A11A1260A128A11831383120313250840
:100F2A00B301B3072408B201B2075330A00000305E
:100F3A00A1000A30A2000030A3000A128A11452635
:100F4A000A128A118313831203132108B501B50704
:100F5A002008B401B4078312031388140810380850
:100F6A00283E8400831300088700E830F00003302D
:100F7A00F1000A128A1120260A128A118312031317
:100F8A00081488103608283E840083130008870056
:100F9A006430F0000030F1000A128A1120260A1289
:100FAA008A1183120313881508113208283E840017
:100FBA00831300088700E830F0000330F1000A12BA
:100FCA008A1120260A128A1183120313081588111E
:100FDA003408283E84008313000887006430F00038
:100FEA000030F1000A128A1120260A128A11B02F43
:060FFA000A128A11002812
:00000001FF
