:060000000A128A11122809
:10000800FF00030883120313AC000408AD000A08BC
:10001800AE007E08AF000A128A1195280A128A11CA
:10002800C928013083160313860003100030031813
:1000380001308312031386000310003003180130C7
:100048008316031788000310003003180130831645
:1000580003138800031000300318013083120313C0
:100068008800031000300318013083160317890035
:1000780003100030031801308316031387000310A0
:100088000030031801308312031387000310003077
:10009800031801308316031385000310003003187A
:1000A80001308312031385008B170B170B160030D2
:1000B80083120313B0000030B1000030F7000030A5
:1000C800F8007708203E8400831300088312031386
:1000D80087001030F4002730F5000A128A11012138
:1000E8000A128A11013083120313B0070318B10AE8
:1000F8000030B1070130F7070318F80A0030F80795
:100108007808803AF60080307602031D8D280A3080
:100118007702031C9028912865285B280A128A1107
:1001280012288B1C98289928BE283108F101F1075C
:100138003008F001F007B7287008203E84008313C8
:100148000008831203138500E830AA000330AB00CF
:100158000A128A11DF200A128A11FF30F0070318E9
:10016800F10AFF30F107F11FBA28BB28A028831233
:1001780003138B102F08FE002E088A002D08840018
:100188002C088300FF0E7F0E0900F001F101F20137
:10019800F30183132A30FD000130FE001230FF0006
:1001A800203084000A128A11F4200A128A1183016D
:1001B8000A128A111528FF30F2070318F30AFF30D4
:1001C800F307FF307306031DEB28FF307206031D8B
:1001D800EE28EF28DF2808007E088A007F088200C2
:1001E800F0200A128A118000840A04087D06031987
:1001F8000034FF0A0319FE0AF428FF30F207031837
:10020800F30AFF30F307FF307306031D0D29FF3093
:100218007206031D10291129012908003F340634EC
:100228005B344F3466346D347D3407347F3467343F
:00000001FF
