:060000000A128A11BD2D59
:100B22003F3406345B344F3466346D347D340734DD
:100B32007F3467347E088A007F0882009B250A1270
:100B42008A118000840A04087D0603190034FF0A12
:100B52000319FE0A9F2DFF30F0070318F10AFF3038
:100B6200F107FF307106031DB82DFF307006031D1B
:100B7200BB2DBC2DAC2D0800F701F80183135030BA
:100B8200FD000530FE009130FF00463084000A125D
:100B92008A119F250A128A1183010A128A119F2E35
:100BA2000310003003180130F10083120313A11F58
:100BB200DB2DDC2DE42DA009A109A00A0319A10A4D
:100BC200F1010314F10DA31FE72DE82DED2DA2096C
:100BD200A309A20A0319A30A230822040319F22D66
:100BE200F32D232EF2010314F20D022E0130031015
:100BF200A20DA30DFF3E031DF82D0130F000700879
:100C0200F207A31F052E062EF72D23082102031D2E
:100C12000C2E22082002031C0F2E102E162E220844
:100C2200A0022308031CA103A10201300310A30C9C
:100C3200A20CFF3E031D172E0130F202031D222ECD
:100C4200232E062E7108031D272E2C2EA009A10982
:100C5200A00A0319A10A080003100030031801308A
:100C620083120313A100A71F372E382E402EA60988
:100C7200A709A60A0319A70AA1010314A10DA51F1A
:100C8200432E442E4D2EA409A509A40A0319A50A30
:100C92000130F0007008A1060030A2000030A3006D
:100CA200270826040319562E572E8F2EA00103144F
:100CB200A00D662E01300310A60DA70DFF3E031DE9
:100CC2005C2E0130F0007008A007A71F692E6A2E63
:100CD2005B2E01300310A20DA30DFF3E031D6B2EF0
:100CE20027082502031D772E26082402031C7A2ECC
:100CF2007B2E822E2608A4022708031CA503A50228
:100D0200221401300310A70CA60CFF3E031D832EF4
:100D12000130A002031D8E2E8F2E6A2E2108031D84
:100D2200932E982EA209A309A20A0319A30A230843
:100D3200A501A5072208A401A4070800031000309A
:100D420003180130831603138500031000300318C3
:100D520001308700031000300318013088000310AF
:100D62000030031801308312031385000310003092
:100D72000318013087000310003003180130880087
:100D82000310003003180130831603178800031084
:100D92000030031801308900283084004630F30007
:100DA2000408F4000A30F500730884008313000875
:100DB200F600F30A7408840076088000F40AF50B42
:100DC200D52E003083120313C4000030C5008312F5
:100DD20003134508A501A5074408A401A407E830A8
:100DE200A6000330A7000A128A112D260A128A11C0
:100DF2008313831203132508BF01BF072408BE0112
:100E0200BE074508A101A1074408A001A007E830D8
:100E1200A2000330A3000A128A11D1250A128A11F4
:100E22008313831203132108C101C1072008C001E3
:100E3200C0074108A501A5074008A401A407643022
:100E4200A6000030A7000A128A112D260A128A1162
:100E52008313831203132508B901B9072408B801C3
:100E6200B8074508A101A1074408A001A007643002
:100E7200A2000030A3000A128A11D1250A128A1197
:100E82008313831203132108B701B7072008B601A1
:100E9200B6073708A501A5073608A401A4070A303A
:100EA200A6000030A7000A128A112D260A128A1102
:100EB2008313831203132508BB01BB072408BA015D
:100EC200BA074508A101A1074408A001A0070A30FA
:100ED200A2000030A3000A128A11D1250A128A1137
:100EE2008313831203132108BD01BD072008BC012F
:100EF200BC070030C2000030C30083120313881401
:100F02000815881508103E08283E8400831300083F
:100F120087006430F0000030F1000A128A11AC251B
:100F22000A128A11831203130814081588158810EF
:100F32003808283E84008313000887006430F000DC
:100F42000030F1000A128A11AC250A128A118312AA
:100F5200031308148814881508113A08283E8400DF
:100F62008313000887006430F0000030F1000A1299
:100F72008A11AC250A128A118312031308148814E9
:100F8200081588113C08283E840083130008870056
:100F92006430F0000030F1000A128A11AC250A1206
:100FA2008A11013083120313C2070318C30A0030E7
:100FB200C3074308803AF30080307302031DE32F16
:100FC20008304202031CE62FE72F7E2F01308312E6
:100FD2000313C4070318C50A0030C5074508803A41
:100FE200F300A7307302031DF82F0F304402031CD5
:0E0FF200FB2FFC2FE82EE22E0A128A11002897
:00000001FF
