:060000000A128A11AC2E69
:100D5800F001F101F201F301F401F501F601F701E7
:100D6800F801F901A001A101A201A301A401A501B3
:100D7800A601A70183010A128A11C22EFF30831629
:100D88000313850003100030031801308700031097
:100D9800003003180130831203138500031000305C
:100DA8000318013087000310003003180130831640
:100DB80003178800031000300318013089008312DC
:100DC8000313051CE82EE92E032F01307206730465
:100DD800031DEF2EF02EF12EE32E0130F00703183D
:100DE800F10A0030F1070518FA2EFB2EF72E051828
:100DF800FE2EFF2E032F0130F2000030F300851C79
:100E0800062F072F212F013074067504031D0D2F9F
:100E18000E2F0F2FE32E0130F0070318F10A0030D0
:100E2800F1078518182F192F152F85181C2F1D2F1E
:100E3800212F0130F4000030F500051D242F252F47
:100E48003F2F013076067704031D2B2F2C2F2D2FD3
:100E5800E32E0130F0070318F10A0030F1070519F5
:100E6800362F372F332F05193A2F3B2F3F2F0130BD
:100E7800F6000030F700851D422F432F5D2F01300B
:100E880020062104031D492F4A2F4B2FE32E013042
:100E9800F0070318F10A0030F1078519542F552F70
:100EA800512F8519582F592F5D2F0130A000003080
:100EB800A100051E602F612F7B2F0130220623041D
:100EC800031D672F682F692FE32E0130F0070318E1
:100ED800F10A0030F107051A722F732F6F2F051AC8
:100EE800762F772F7B2F0130A2000030A300851EBC
:100EF8007E2F7F2F992F013024062504031D852F6F
:100F0800862F872FE32E0130F0070318F10A0030EF
:100F1800F107851A902F912F8D2F851A942F952FD1
:100F2800992F0130A4000030A500051F9C2F9D2F8C
:100F3800B72F013026062704031DA32FA42FA52FA2
:100F4800E32E0130F0070318F10A0030F107051B02
:100F5800AE2FAF2FAB2F051BB22FB32FB72F0130FA
:100F6800A6000030A700851FBA2FBB2FD52F013050
:100F780078067904031DC12FC22FC32FE32E013039
:100F8800F0070318F10A0030F107851BCC2FCD2F8D
:100F9800C92F851BD02FD12FD52F0130F800003055
:100FA800F9000030FB000030FC00EE2F0130FA00A1
:100FB8007B0AE02F0310FA0DFF3E031DDE2F7A088F
:100FC80083120313070487000130FB070318FC0A88
:100FD8000030FC077C08803AFA007108803A7A02EF
:100FE800031DF82F70087B02031CFB2FFC2FDA2F40
:080FF800E32E0A128A11002801
:00000001FF
