:060000000A128A15C52B4F
:1000080078087704760403190A280B280D2880300D
:10001800F8060800831203134308B9004408BA001D
:100028004508BB0003103A0D3B0DC100C108031D74
:100038001E281F2826280030C3000030C4000030C6
:10004800C500C8284608B9004708BA004808BB00D8
:1000580003103A0D3B0DC200C208031D3428352891
:100068003C280030C3000030C4000030C500C82858
:100078000030BE000030BF000030C0004208893E9A
:10008800B9003908C1024308B9004408BA00450854
:10009800BB0010300310BB0CBA0CB90CFF3E031D9B
:1000A8004E283908C2004608B9004708BA0048086F
:1000B800BB0010300310BB0CBA0CB90CFF3E031D7B
:1000C8005E283908BC003C08C2068030B9003908EF
:1000D800C205C417FF30C305FF30C4050030C5058D
:1000E800C717FF30C605FF30C7050030C8051830F0
:1000F800BD0001300310BE0DBF0DC00DFF3E031D36
:100108007E2848084502031D8F2847084402031D1E
:100118008F2846084302031C922893289E284608E5
:10012800C3024708031C470FC4024808031C480AB7
:10013800C5023E1401300310C30DC40DC50DFF3EAA
:10014800031D9F280130BD02031DAB28AC287D2864
:100158003E08A0003F08A1004008A2004108B900DD
:100168003908A3004208BA003A08A4000A128A15FE
:1001780070250A128A118313831203132008C300FF
:100188002108C4002208C500080083308312031325
:100198009F008030831603139F0083129F18D52871
:1001A800D628D1281E08B800B9013808F200390845
:1001B800F300831603131E0883120313B800B90152
:1001C8003808F4003908F50073087204031DED2897
:1001D800EE28FF287508F101F1077408F001F0070F
:1001E8007108B701B7077008B601B6070A128A1571
:1001F80073260A128A11013072067304031D052939
:1002080006291B297408003EF00075080318013EF2
:10021800013EF100710883120313B701B707700894
:10022800B601B6070A128A1573260A128A11023015
:1002380072067304031D2129222937297408003EF8
:10024800F00075080318013E023EF10071088312A0
:100258000313B701B7077008B601B6070A128A1563
:1002680073260A128A11033072067304031D3D298E
:100278003E2953297408003EF00075080318013E12
:10028800033EF100710883120313B701B707700822
:10029800B601B6070A128A1573260A128A1171085E
:1002A800803A83120313B80081303802031D5E2997
:1002B800B3307002031C6129622969298312031370
:1002C80005160130D4000030D50001308312031325
:1002D80054065504031D7129722982297108803A30
:1002E800B80081303802031D7B2990307002031852
:1002F8007E297F2982298312031305127108803A07
:1003080083120313B80081303802031D8D2934305D
:1003180070020318902991299829831203138516CE
:100328000130D6000030D70001308312031356067F
:100338005704031DA029A129B1297108803AB800E2
:1003480081303802031DAA29B4307002031CAD297C
:10035800AE29B1298312031385120800C0300A128E
:100368008A15B9230A128A11710883120313A70187
:10037800A7077008A601A6070A128A15FD230A1204
:100388008A118313831203132608B3002708B400C5
:100398002808B5000030B600A030B7004030B800DB
:1003A8000A128A1524270A128A1183138312031347
:1003B8003308C3003408C4003508C500C030C6007F
:1003C8007F30C7004430C8000A128A110E200A1272
:1003D8008A118313831203134308C9004408CA000F
:1003E8004508CB004908B3004A08B4004B08B500DB
:1003F8000030B600C830B7004230B8000A128A157B
:1004080024270A128A118313831203133308C200A4
:100418003408C3003508C4000A128A15EC250A12EC
:100428008A118313831203134308D301D3074208A5
:10043800D201D2075308AB01AB075208AA01AA0799
:100448006430AC000030AD000A128A15FE240A128E
:100458008A118313831203132B08CF01CF072A08AD
:10046800CE01CE075308A301A3075208A201A20791
:100478006430A4000030A5000A128A152C240A1240
:100488008A118313831203132308AB01AB072208D5
:10049800AA01AA070A30AC000030AD000A128A157A
:1004A800FE240A128A118313831203132B08D10125
:1004B800D1072A08D001D0075308A301A30752087F
:1004C800A201A2070A30A4000030A5000A128A156A
:1004D8002C240A128A118313831203132308CD01D3
:1004E800CD072208CC01CC074E08303E0A128A15E7
:1004F800AD230A128A112E300A128A15AD230A1268
:100508008A11831203135008303E0A128A15AD234C
:100518000A128A11831203134C08303E0A128A15F4
:10052800AD230A128A1120300A128A15AD230A1245
:100538008A1156300A128A15AD230A128A11080048
:10054800831203132B08A5002C08A6002D08A7006A
:100558000310260D270DAA002E08A5002F08A600B7
:100568003008A7000310260D270DA9002A08031D2F
:10057800BE2ACE2A29082A020318C32AC42AD52A41
:100588002A03FF3A2907A50019302502031CCD2AA2
:10059800CE2AD52A2E08AB002F08AC003008AD00B3
:1005A800EF2B2908031DD92AE92A2A08290203184A
:1005B800DE2ADF2AF02A2903FF3A2A07A500193084
:1005C8002502031CE82AE92AF02A2B08AB002C088C
:1005D800AC002D08AD00EF2B0630A800AD1FF52AA2
:1005E800F62AF72AA817B01FFA2AFB2AFC2A281786
:1005F800AC17FF30AB05FF30AC050030AD05AF17C9
:10060800FF30AE05FF30AF050030B00529082A02DB
:1006180003180F2B102B3C2B01300310AE0DAF0D20
:10062800B00DFF3E031D112B0130A90229082A062F
:1006380003191F2B202B352B0130A8022808073956
:10064800031D272B282B102B352B01300310AD0C45
:10065800AC0CAB0CFF3E031D2A2B0130A50025086E
:10066800AA072A082906031D3A2B3B2B292B6D2B99
:100678002A0829020318412B422B6D2B0130031045
:10068800AB0DAC0DAD0DFF3E031D432B0130AA028F
:1006980029082A060319512B522B672B0130A8026F
:1006A80028080739031D592B5A2B422B672B013079
:1006B8000310B00CAF0CAE0CFF3E031D5C2B0130D9
:1006C800A5002508A9072A082906031D6C2B6D2BF0
:1006D8005B2BA81F702B712B872BFF30AB06FF30CD
:1006E800AC06FF30AD060130AB070030031103182C
:1006F800013E0319802BAC07003003110318013E9B
:100708000319872BAD07281F8A2B8B2BA12BFF30B2
:10071800AE06FF30AF06FF30B0060130AE0700303E
:1007280003110318013E03199A2BAF070030031178
:100738000318013E0319A12BB0070310003003185A
:100748000130A8002B08AE072C08031103182C0A47
:100758000319AF2BAF072D08031103182D0A03192E
:10076800B62BB007B01FB92BBA2BD32BFF30AE0670
:10077800FF30AF06FF30B0060130AE07003003117E
:100788000318013E0319C92BAF07003003110318E2
:10079800013E0319D02BB007A8010314A80D2E0899
:1007A800A0002F08A1003008A2002A08A5002508EB
:1007B800A3002808A6002608A4000A128A15702596
:1007C8000A128A118313831203132008AB0021082D
:1007D800AC002208AD000800710883120313A701BA
:1007E800A7077008A601A6070A128A15FD230A1290
:1007F8008A118313831203132608B3002708B40051
:100808002808B5000030B6004830B7004330B800BB
:100818000A128A1524270A128A11831383120313D2
:100828003308C3003408C4003508C500C030C6000A
:100838007F30C7004430C8000A128A110E200A12FD
:100848008A11831383120313430883160313B40016
:1008580083120313440883160313B500831203138A
:10086800450883160313B6007108803A83120313F0
:10087800C90081304902031D432C00307002031C5B
:10088800462C472C1A2E831603133408831203139D
:10089800B30083160313350883120313B4008316B9
:1008A8000313360883120313B5000030B600C830AE
:1008B800B7004230B8000A128A1524270A128A1192
:1008C800831383120313330883160313C30083129D
:1008D8000313340883160313C40083120313350863
:1008E80083160313C500430883120313AB00831652
:1008F8000313440883120313AC008316031345083B
:1009080083120313AD004030AE009C30AF00C530F9
:10091800B0000A128A11A4220A128A1183138312C0
:1009280003132B08C2002C08C3002D08C4000A12A8
:100938008A15EC250A128A118313831203134308BC
:1009480083160313C701C7078312031342088316CC
:100958000313C601C607470883120313AB01AB078D
:1009680083160313460883120313AA01AA0710303B
:10097800AC002730AD000A128A15FE240A128A112B
:100988008313831203132B0883160313B301B307CE
:10099800831203132A0883160313B201B207470808
:1009A80083120313A301A3078316031346088312B4
:1009B8000313A201A2071030A4002730A5000A12D1
:1009C8008A152C240A128A1183138312031323080D
:1009D80083160313BA01BA07831203132208831676
:1009E8000313B901B9073A0883120313AB01AB0724
:1009F80083160313390883120313AA01AA07E830E0
:100A0800AC000330AD000A128A15FE240A128A11BE
:100A18008313831203132B0883160313B101B10741
:100A2800831203132A0883160313B001B0073A0888
:100A380083120313A301A307831603133908831230
:100A48000313A201A207E830A4000330A5000A128C
:100A58008A152C240A128A1183138312031323087C
:100A680083160313C201C2078312031322088316D5
:100A78000313C101C107420883120313AB01AB077B
:100A880083160313410883120313AA01AA076430CB
:100A9800AC000030AD000A128A15FE240A128A1131
:100AA8008313831203132B0883160313AF01AF07B5
:100AB800831203132A0883160313AE01AE074208F4
:100AC80083120313A301A307831603134108831298
:100AD8000313A201A2076430A4000030A5000A1283
:100AE8008A152C240A128A118313831203132308EC
:100AF80083160313BE01BE0783120313220883164D
:100B08000313BD01BD073E0883120313AB01AB07F6
:100B1800831603133D0883120313AA01AA070A3098
:100B2800AC000030AD000A128A15FE240A128A11A0
:100B38008313831203132B0883160313AD01AD0728
:100B4800831203132A0883160313AC01AC073E086B
:100B580083120313A301A307831603133D0883120B
:100B68000313A201A2070A30A4000030A5000A124C
:100B78008A152C240A128A1183138312031323085B
:100B880083160313A501A5078312031322088316EE
:100B98000313A401A40787300A128A15B9230A127D
:100BA8008A112B300A128A15AD230A128A1183166C
:100BB80003133208303E0A128A15AD230A128A112D
:100BC800831603133008303E0A128A15AD230A1221
:100BD8008A11831603132E08303E0A128A15AD2394
:100BE8000A128A112E300A128A15AD230A128A11A6
:100BF800831603132C08303E0A128A15AD230A12F5
:100C08008A11831603132408303E0A128A15AD236D
:100C18000A128A11DF300A128A15AD230A128A11C4
:100C280043300A128A15AD230A128A117108803AD4
:100C380083120313C90080304902031D252EFF309B
:100C480070020318282E292EFF2F83160313340849
:100C580083120313B3008316031335088312031397
:100C6800B40083160313360883120313B50000304B
:100C7800B600C830B7004230B8000A128A152427D7
:100C88000A128A118313831203133308831603137A
:100C9800C30083120313340883160313C40083129A
:100CA8000313350883160313C5004308F6004408E8
:100CB800F7004508F8000A128A1104200A128A115E
:100CC800760883120313AB007708AC007808AD00F0
:100CD8004030AE009C30AF004530B0000A128A1197
:100CE800A4220A128A118313831203132B08C20049
:100CF8002C08C3002D08C4000A128A15EC250A1214
:100D08008A11831383120313430883160313C7013D
:100D1800C70783120313420883160313C601C607C5
:100D2800470883120313AB01AB0783160313460866
:100D380083120313AA01AA071030AC002730AD00B4
:100D48000A128A15FE240A128A11831383120313C6
:100D58002B0883160313A301A307831203132A087E
:100D680083160313A201A207470883120313A301E2
:100D7800A30783160313460883120313A201A207CD
:100D88001030A4002730A5000A128A152C240A1254
:100D98008A11831383120313230883160313BC01D8
:100DA800BC0783120313220883160313BB01BB0776
:100DB8003C0883120313AB01AB07831603133B08EC
:100DC80083120313AA01AA07E830AC000330AD0070
:100DD8000A128A15FE240A128A1183138312031336
:100DE8002B0883160313A101A107831203132A08F2
:100DF80083160313A001A0073C0883120313A30161
:100E0800A307831603133B0883120313A201A20747
:100E1800E830A4000330A5000A128A152C240A120F
:100E28008A11831383120313230883160313C00143
:100E3800C00783120313220883160313BF01BF07D9
:100E4800400883120313AB01AB07831603133F0853
:100E580083120313AA01AA076430AC000030AD0066
:100E68000A128A15FE240A128A11831383120313A5
:100E78002B0883160313AB01AB07831203132A084D
:100E880083160313AA01AA07400883120313A301B8
:100E9800A307831603133F0883120313A201A207B3
:100EA8006430A4000030A5000A128A152C240A1206
:100EB8008A11831383120313230883160313B801BB
:100EC800B80783120313220883160313B701B70761
:100ED800380883120313AB01AB07831603133708D3
:100EE80083120313AA01AA070A30AC000030AD0030
:100EF8000A128A15FE240A128A1183138312031315
:100F08002B0883160313A901A907831203132A08C0
:100F180083160313A801A807380883120313A30133
:100F2800A30783160313370883120313A201A2072A
:100F38000A30A4000030A5000A128A152C240A12CF
:100F48008A11831383120313230883160313A7013B
:100F5800A70783120313220883160313A601A60703
:100F680087300A128A15B9230A128A112D300A12FB
:100F78008A15AD230A128A11831603132208303EFC
:100F88000A128A15AD230A128A1183160313200840
:100F9800303E0A128A15AD230A128A1183160313EA
:100FA8002A08303E0A128A15AD230A128A112E30F9
:100FB8000A128A15AD230A128A1183160313280808
:100FC800303E0A128A15AD230A128A1183160313BA
:100FD8002608303E0A128A15AD230A128A11DF301C
:100FE8000A128A15AD230A128A1143300A128A1589
:080FF800AD230A128A11080062
:10175A00F800831203130914780888000A128A15FC
:10176A00E4230A128A150800F800831203130910E9
:10177A00780888000A128A15E4230A128A150800D2
:10178A00F001F101F201F301F401F501D401D501EF
:10179A00D601D70183010A128A158E2CFF30F6076B
:1017AA000318F70AFF30F707FF307706031DDF2B10
:1017BA00FF307606031DE22BE32BD32B080083129E
:1017CA0003138914E830F6000330F7000A128A1569
:1017DA00D3230A128A15831203138910E830F600FC
:1017EA000330F7000A128A15D3230A128A15080051
:1017FA00031000300318013083120313A500A71F3A
:10180A00072C082C102CA609A709A60A0319A70A4F
:10181A00A5010314A50D2608A0002708A100A2010E
:10182A008E30F9007908A3002508FA007A08A40086
:10183A000A128A1570250A128A1583138312031352
:10184A002008A6002108A7002208A8000800031003
:10185A0000300318013083120313A000A31F362C93
:10186A00372C3F2CA209A309A20A0319A30AA00133
:10187A000314A00DA51F422C432C482CA409A5092A
:10188A00A40A0319A50A2508240403194D2C4E2C71
:10189A007E2CA1010314A10D5D2C01300310A40DAF
:1018AA00A50DFF3E031D532C0130F6007608A10753
:1018BA00A51F602C612C522C25082302031D672CBE
:1018CA0024082202031C6A2C6B2C712C2408A20205
:1018DA002508031CA303A30201300310A50CA40CC2
:1018EA00FF3E031D722C0130A102031D7D2C7E2CAC
:1018FA00612C2008031D822C872CA209A309A20AA5
:10190A000319A30A2308A301A3072208A201A20715
:10191A0008000130831603138500031000300318F2
:10192A0001308312031385000310003003180130BD
:10193A008316031388000310003003180130831242
:10194A0003138800031000300318013083160313B1
:10195A008700031000300318013083120313870035
:10196A000310003003180130831603138900031093
:10197A0000300318013083120313890083160317FA
:10198A0088010314880D0310003003180130890000
:10199A0038300A128A15B9230A128A150C300A122B
:1019AA008A15B9230A128A1580300A128A15B923B0
:1019BA000A128A1530300A128A15AD230A128A15BC
:1019CA0030300A128A15AD230A128A150A128A11B0
:1019DA00C9200A128A150A128A11B2210A128A1514
:1019EA000A128A11F0230A128A15EB2C0A128A119A
:1019FA000028031000300318013083120313A700D4
:101A0A00AD1F082D092D112DAC09AD09AC0A03191A
:101A1A00AD0AA7010314A70DAB1F142D152D1E2DFA
:101A2A00AA09AB09AA0A0319AB0A0130F700770819
:101A3A00A7060030A8000030A9002D082C040319BD
:101A4A00272D282D602DA6010314A60D372D013050
:101A5A000310AC0DAD0DFF3E031D2D2D0130F70017
:101A6A007708A607AD1F3A2D3B2D2C2D0130031008
:101A7A00A80DA90DFF3E031D3C2D2D082B02031DA9
:101A8A00482D2C082A02031C4B2D4C2D532D2C08B3
:101A9A00AA022D08031CAB03AB0228140130031061
:101AAA00AD0CAC0CFF3E031D542D0130A602031DE4
:101ABA005F2D602D3B2D2708031D642D692DA80974
:101ACA00A909A80A0319A90A2908AB01AB0728081A
:101ADA00AA01AA070800831203132308031D762DFF
:101AEA007D2D220821042004031D7C2D7D2D902D9F
:101AFA000030A0000030A1000030A200EB2D013020
:101B0A00F6007608A30701300310A20CA10CA00C62
:101B1A00FF3E031D892DFE302205031D952D962DAE
:101B2A00842DB32D0130F6007608A3070130A007F3
:101B3A00003003110318013E0319A42DA107003038
:101B4A0003110318013E0319AB2DA207013003103C
:101B5A00A20CA10CA00CFF3E031DAC2DFF302205E8
:101B6A00031DB82DB92D972DC42D0130A3020130C4
:101B7A000310A00DA10DA20DFF3E031DBD2DA11F37
:101B8A00C72DC82DBA2D2318CB2DCC2DD22DFF3021
:101B9A00A0057F30A105FF30A2050310A30C23087E
:101BAA00F600F701F80110300310F60DF70DF80DE5
:101BBA00FF3E031DD92D7608A0047708A1047808F2
:101BCA00A2042408031DEA2DEB2DA2170800831294
:101BDA0003134208B9004308BA004408BB000310C3
:101BEA003A0D3B0DC100C108031DFC2DFD2D062E2B
:101BFA000030C5000030C4000030C3000030C2000D
:101C0A00722E4208B9004308BA004408BB001730D4
:101C1A000310BB0CBA0CB90CFF3E031D0D2E39087C
:101C2A00BC00C317FF30C205FF30C3050030C4052E
:101C3A004208BD004308BE004408BF00C0018E3000
:101C4A00C102C11F292E2A2E442E4108803A8F3EF6
:101C5A000318302E312E322EFD2D01300310C00C08
:101C6A00BF0CBE0CBD0CFF3E031D332E0130B90064
:101C7A003908C107031D422E432E322E5B2E18301F
:101C8A004102031C492E4A2E562EFD2D0130B90061
:101C9A000310BD0DBE0DBF0DC00DB90B4D2E013089
:101CAA00C102C108031D5A2E5B2E4B2E3C08031D90
:101CBA005F2E6A2EBD09BE09BF09C009BD0A0319F4
:101CCA00BE0A0319BF0A0319C00A4008C5003F0823
:101CDA00C4003E08C3003D08C20008008312031373
:101CEA003708AB01AB073608AA01AA07E830AC00EF
:101CFA000330AD000A128A15FE240A128A158313CC
:101D0A00831203132B08B301B3072A08B201B207DF
:101D1A003708A301A3073608A201A207E830A400E6
:101D2A000330A5000A128A152C240A128A15831375
:101D3A00831203132308AB01AB072208AA01AA07DF
:101D4A006430AC000030AD000A128A15FE240A1273
:101D5A008A158313831203132B08B501B5072A08C2
:101D6A00B401B4073708A301A3073608A201A207E2
:101D7A006430A4000030A5000A128A152C240A1225
:101D8A008A158313831203132308AB01AB072208B6
:101D9A00AA01AA070A30AC000030AD000A128A155F
:101DAA00FE240A128A158313831203132B08AF0128
:101DBA00AF072A08AE01AE073708A301A307360802
:101DCA00A201A2070A30A4000030A5000A128A154F
:101DDA002C240A128A158313831203132308B101D0
:101DEA00B1072208B001B00780300A128A15B92358
:101DFA000A128A15831203133208303E0A128A1510
:101E0A00AD230A128A15831203133408303E0A12CC
:101E1A008A15AD230A128A15831203132E08303E3F
:101E2A000A128A15AD230A128A158312031330087F
:101E3A00303E0A128A15AD230A128A150800831247
:101E4A0003133308A9003408AA003508AB000310AD
:101E5A002A0D2B0DAD00AD08031D342F352F3C2F55
:101E6A000030B3000030B4000030B500FF2F360850
:101E7A00A9003708AA003808AB0003102A0D2B0D59
:101E8A00B200B208031D4A2F4B2F522F0030B30065
:101E9A000030B4000030B500FF2F32087B3EA900A5
:101EAA002908AD073308A9003408AA003508AB0091
:101EBA0010300310AB0CAA0CA90CFF3E031D5E2FB9
:101ECA002908B2003608A9003708AA003808AB006A
:101EDA0010300310AB0CAA0CA90CFF3E031D6E2F89
:101EEA002908AC002C08B2068030A9002908B205DE
:101EFA00B417B717FF30B605FF30B7050030B8057D
:101F0A000030AE000030AF000030B0000730B10042
:101F1A00331C902F912FA12F3608AE0737080311D3
:101F2A000318370A03199A2FAF0738080311031841
:101F3A00380A0319A12FB00701300310B50CB40CED
:101F4A00B30CFF3E031DA22F01300310B60DB70DCF
:101F5A00B80DFF3E031DAA2F0130B102031DB62F93
:101F6A00B72F8D2F0930B100331CBC2FBD2FCD2FB9
:101F7A003608AE07370803110318370A0319C62FA4
:101F8A00AF07380803110318380A0319CD2FB00711
:101F9A0001300310B50CB40CB30CFF3E031DCE2F59
:101FAA0001300310B00CAF0CAE0CFF3E031DD62F50
:101FBA000130B102031DE22FE32FB92F2E08A00032
:101FCA002F08A1003008A2002D08A9002908A300A3
:101FDA003208AA002A08A4000A128A1570250A12D1
:101FEA008A158313831203132008B3002108B4004F
:061FFA002208B5000800FA
:00000001FF
