:060000000A128A111F2FF5
:100E3E0083010A128A112A2FFF30F0070318F10AD4
:100E4E00FF30F1070800031000300318013083163D
:100E5E0003178800031000300318013089000310B7
:100E6E000030031801308316031385008312031319
:100E7E0005143230F0000030F1000A128A112327D7
:100E8E000A128A118312031305153230F000003056
:100E9E00F1000A128A1123270A128A1183120313F0
:100EAE0005163230F0000030F1000A128A112327A5
:100EBE000A128A11831203130517F430F000013061
:100ECE00F1000A128A1123270A128A1183120313C0
:100EDE0005103230F0000030F1000A128A1123277B
:100EEE000A128A118312031305113230F0000030FA
:100EFE00F1000A128A1123270A128A118312031390
:100F0E0005123230F0000030F1000A128A11232748
:100F1E000A128A11831203130513F430F000013004
:100F2E00F1000A128A1123270A128A11831203135F
:100F3E0085143230F0000030F1000A128A11232796
:100F4E000A128A118312031385153230F000003015
:100F5E00F1000A128A1123270A128A11831203132F
:100F6E0085163230F0000030F1000A128A11232764
:100F7E000A128A11831203138517F430F000013020
:100F8E00F1000A128A1123270A128A1183120313FF
:100F9E0085103230F0000030F1000A128A1123273A
:100FAE000A128A118312031385113230F0000030B9
:100FBE00F1000A128A1123270A128A1183120313CF
:100FCE0085123230F0000030F1000A128A11232708
:100FDE000A128A11831203138513F430F0000130C4
:100FEE00F1000A128A1123270A128A110A128A1193
:020FFE000028C9
:00000001FF
