:060000000A128A11FB2E1A
:100DF60083010A128A11292FFF30F007FF300311F1
:100E06000318013E0319082FF107FF3003110318D9
:100E1600013E03190F2FF207FF3003110318013E9D
:100E26000319162FF307FF307306031D242FFF3017
:100E36007206031D242FFF307106031D242FFF3079
:100E46007006031D272F282FFF2E080003100030E1
:100E560003180130831603138500031000300318AE
:100E66000130831603178800031000300318013081
:100E760089008312031305140030F3000030F200DA
:100E86000130F100F430F0000A128A11FF260A122E
:100E96008A118312031385140030F3000030F20028
:100EA6000130F100F430F0000A128A11FF260A120E
:100EB6008A118312031305100030F3000030F2008C
:100EC6000130F100F430F0000A128A11FF260A12EE
:100ED6008A118312031305150030F3000030F20067
:100EE6000130F100F430F0000A128A11FF260A12CE
:100EF6008A118312031385100030F3000030F200CC
:100F06000130F100F430F0000A128A11FF260A12AD
:100F16008A118312031385150030F3000030F200A6
:100F26000130F100F430F0000A128A11FF260A128D
:100F36008A118312031305110030F3000030F2000A
:100F46000130F100F430F0000A128A11FF260A126D
:100F56008A118312031305160030F3000030F200E5
:100F66000130F100F430F0000A128A11FF260A124D
:100F76008A118312031385110030F3000030F2004A
:100F86000130F100F430F0000A128A11FF260A122D
:100F96008A118312031385160030F3000030F20025
:100FA6000130F100F430F0000A128A11FF260A120D
:100FB6008A118312031305120030F3000030F20089
:100FC6000130F100F430F0000A128A11FF260A12ED
:100FD6008A118312031385120030F3000030F200E9
:100FE6000130F100F430F0000A128A11FF260A12CD
:0A0FF6008A113C2F0A128A1100280C
:00000001FF
