:060000000A128A11122809
:10000800FF00030883120313AD000408AE000A08BA
:10001800AF007E08B0000A128A1187280A128A11D6
:10002800C328013083160313860003100030031819
:1000380001308312031386000310003003180130C7
:100048008316031788000310003003180130831645
:1000580003138800031000300318013083120313C0
:100068008800031000300318013083160317890035
:1000780003100030031801308316031387000310A0
:100088000030031801308312031387000310003077
:10009800031801308316031385000310003003187A
:1000A80001308312031385008B170B170B160030D2
:1000B800F5000030F6007508203E84008313000820
:1000C8008312031387001030F0002730F1000A1262
:1000D8008A11F9200A128A110130F5070318F60A65
:1000E8000030F6077608803AF20080307202031D6D
:1000F8007F280A307502031C822883285F285B2822
:100108000A128A1112288B1C8A288B28B8280030DA
:10011800F3000030F4007308203E840083130008C5
:10012800831203138500E830AA000330AB000A12DB
:100138008A11E8200A128A110130F3070318F40A19
:100148000030F4077408803A83120313AC0080303F
:100158002C02031DB1280A307302031CB428B528E9
:100168008F28831203138B103008FE002F088A0093
:100178002E0884002D088300FF0E7F0E0900F7016A
:10018800F80183132A30FD000130FE000A30FF0019
:10019800203084000A128A11DB200A128A11830196
:1001A8000A128A1115287E088A007F088200D72043
:1001B8000A128A118000840A04087D060319003493
:1001C800FF0A0319FE0ADB28FF30F7070318F80AAD
:1001D800FF30F807FF307806031DF428FF30770654
:1001E800031DF728F828E8280800FF30F707031848
:1001F800F80AFF30F807FF307806031D0529FF309D
:100208007706031D08290929F92808003F34063410
:100218005B344F3466346D347D3407347F3467344F
:00000001FF
